:1000000073C00000A0C000009EC000009CC00000A3
:100010009AC0000098C0000096C0000094C0000084
:1000200092C0000090C000008EC000008CC0000094
:100030008AC0000088C0000086C0000084C00000A4
:1000400082C0000080C000007EC000007CC00000B4
:100050007AC0000078C0000076C000002BC200000B
:1000600072C000009AC200006FC200006CC00000A5
:100070006AC0000068C0000066C0000064C00000E4
:1000800062C0000060C000005EC000005CC00000F4
:100090005AC0000058C0000056C0000054C0000004
:1000A00052C0000050C000004EC000004CC0000014
:1000B0004AC0000048C0000046C0000044C0000024
:1000C00042C0000040C000003EC000003CC0000034
:1000D0003AC0000038C0000036C0000034C0000044
:1000E00032C0000003033B0511241FBECFEFD1E255
:1000F000DEBFCDBF00E00CBF23E0ACE8B2E001C042
:100100001D92A036B207E1F712E0A0E0B2E0E0E60F
:10011000F3E100E00BBF02C007900D92AC38B107CD
:10012000D9F710E0C3E7D0E000E005C0219701094E
:10013000802FFE01EBD6C237D10780E00807B1F768
:10014000C0D20C949F095CCFAF92BF92CF92DF9246
:10015000EF92FF920F931F93CF93DF936C017B017C
:100160008B01040F151FEB015E01AE18BF08C0170D
:10017000D10759F06991D601ED91FC910190F08180
:10018000E02DC6011995892B79F7C501DF91CF9133
:100190001F910F91FF90EF90DF90CF90BF90AF90A5
:1001A0000895FC01538D448D252F30E0842F90E07D
:1001B000821B930B541710F0CF9608950197089562
:1001C000FC01918D828D981761F0A28DAE0FBF2F2B
:1001D000B11D5D968C91928D9F5F9F73928F90E081
:1001E00008958FEF9FEF0895FC01918D828D9817F0
:1001F00031F0828DE80FF11D858D90E008958FEF2D
:100200009FEF0895FC01918D228D892F90E0805CF5
:100210009F4F821B91098F739927089585E992E07A
:10022000F1DF21E0892B09F420E0822F0895FC0101
:10023000A48DA80FB92FB11DA35ABF4F2C91848D47
:1002400090E001968F739927848FA689B7892C93A4
:10025000A089B1898C91837080648C93938D848DF7
:10026000981306C00288F389E02D80818F7D8083FA
:100270000895EF92FF920F931F93CF93DF93EC01BA
:1002800081E0888F9B8D8C8D98131AC0E889F9893D
:10029000808185FF15C09FB7F894EE89FF89608340
:1002A000E889F98980818370806480839FBF81E0C1
:1002B00090E0DF91CF911F910F91FF90EF90089503
:1002C000F62E0B8D10E00F5F1F4F0F731127E02EDE
:1002D0008C8D8E110BC00FB607FCFACFE889F98917
:1002E000808185FFF5CFCE01A2DFF2CFEB8DEC0F41
:1002F000FD2FF11DE35AFF4FF0829FB7F8940B8F4B
:10030000EA89FB8980818062D0CFCF93DF93EC01B3
:10031000888D8823B1F0AA89BB89E889F9898C91F5
:1003200085FD03C0808186FD0CC00FB607FCF7CFAA
:100330008C9185FFF2CF808185FFEDCFCE0177DFF5
:10034000EACFDF91CF91089580E090E0892B21F0F2
:1003500065DF81110E94000080E090E0892B49F068
:1003600080E090E0892B29F00E94000081110E941A
:10037000000080E090E0892B49F080E090E0892B3C
:1003800029F00E94000081110E94000080E090E0AE
:10039000892B49F080E090E0892B29F00E94000031
:1003A00081110C9400000895FC0101900020E9F7F0
:1003B0003197AF01481B590BBC0185E992E0C4CECF
:1003C0008F929F92AF92BF920F931F93CF93DF9321
:1003D000CDB7DEB7A1970FB6F894DEBF0FBECDBF85
:1003E00019A2423008F44AE08E010F5D1F4F842E9F
:1003F000912CB12CA12CA501940166D5E62FB90151
:10040000CA01EA30ECF4E05DD801EE938D01232BB4
:10041000242B252B81F790E080E0109711F0CD017F
:10042000C3DFA1960FB6F894DEBF0FBECDBFDF913C
:10043000CF911F910F91BF90AF909F908F90089593
:10044000E95CE2CF0F931F93CF93DF93EC018B0115
:1004500088819981009729F02A813B8126173707E7
:1004600080F4B8016F5F7F4F7ED6009791F099833B
:1004700088831B830A832C813D81232B11F4FC018B
:1004800010821D830C836FE572E08881998150D7BB
:100490000BC088819981009709F0DCD519821882F8
:1004A0001D821C821B821A82CE01DF91CF911F9187
:1004B0000F9108951F920F920FB60F9211242F9350
:1004C0003F938F939F93AF93BF93809191029091AD
:1004D0009202A0919302B09194023091900223E095
:1004E000230F2D3758F50196A11DB11D20939002C1
:1004F0008093910290939202A0939302B0939402FE
:1005000080918C0290918D02A0918E02B0918F0209
:100510000196A11DB11D80938C0290938D02A09332
:100520008E02B0938F02BF91AF919F918F913F91B7
:100530002F910F900FBE0F901F90189526E8230F54
:100540000296A11DB11DD2CF1F920F920FB60F922E
:1005500011240BB60F922F933F934F935F936F939A
:100560007F938F939F93AF93BF93EF93FF9385E90F
:1005700092E05DDEFF91EF91BF91AF919F918F91DE
:100580007F916F915F914F913F912F910F900BBE93
:100590000F900FBE0F901F9018951F920F920FB6DD
:1005A0000F9211240BB60F922F938F939F93EF937B
:1005B000FF93E091A502F091A6028081E091AB0249
:1005C000F091AC0282FD1DC090818091AE028F5FE0
:1005D0008F732091AF02821741F0E091AE02F0E0FC
:1005E000EB56FD4F958F8093AE02FF91EF919F9157
:1005F0008F912F910F900BBE0F900FBE0F901F90F9
:1006000018958081F2CFCF93DF93E5E9F2E0138272
:10061000128288EE93E0A0E0B0E084839583A68305
:10062000B7838AE192E09183808385EC90E095879F
:10063000848784EC90E09787868780EC90E0918BAC
:10064000808B81EC90E0938B828B82EC90E0958B99
:10065000848B86EC90E0978B868B118E128E138E96
:10066000148EE6E5F3E01182108213821282158265
:10067000148270E060E0CF01E5DEC2E3D3E01D82CA
:100680001C821F821E821986188670E060E086E355
:1006900093E0D8DE8AE999E9A9E1B0E48A879B87EB
:1006A000AC87BD871E861F86188A198A1A8A1B8AFC
:1006B0001C8A1D8A1E8A1F8A188E198EDF91CF917F
:1006C0000895CF93DF93CDB7DEB760970FB6F89458
:1006D000DEBF0FBECDBF789484B5826084BD84B583
:1006E000816084BD85B5826085BD85B5816085BD2D
:1006F00080916E00816080936E00109281008091E5
:10070000810082608093810080918100816080936C
:100710008100809180008160809380008091B10091
:1007200084608093B1008091B00081608093B000BC
:10073000809191008260809391008091910081600E
:1007400080939100809190008160809390008091CF
:10075000A10082608093A1008091A10081608093BC
:10076000A1008091A00081608093A0008091210170
:100770008260809321018091210181608093210119
:100780008091200181608093200180917A008460B3
:1007900080937A0080917A00826080937A008091C1
:1007A0007A00816080937A0080917A0080688093DB
:1007B0007A001092C100E091A502F091A60282E0B9
:1007C0008083E091A102F091A2021082E091A30245
:1007D000F091A40280E180831092AD02E091A90221
:1007E000F091AA0286E08083E091A702F091A8022E
:1007F000808180618083E091A702F091A8028081CE
:1008000088608083E091A702F091A80280818068CF
:100810008083E091A702F091A80280818F7D808380
:1008200080E490E090934D0380934C0380917B0093
:10083000886080937B0082E480937C0080917A00C2
:10084000806480937A0080917A0086FDFCCF90913D
:1008500078008091790089279827892725E0289FAB
:10086000B001299F700D1124072E000C880B990BE5
:1008700012D120E030EC4FE754E485D24B015C010B
:10088000CB01D50180934E0390934F03A093500367
:10089000B0935103E0903203F0903303009134039E
:1008A000109135039701A801B401C501EED087FD71
:1008B00002C074018501C701D8018093320390936F
:1008C0003303A0933403B09335039701A8016091DB
:1008D0003C0370913D0380913E0390913F03ECD225
:1008E00018160CF445C088E292E05EDD8DE592E0DA
:1008F0005BDD80E1E6E0F2E0DE01119601900D9211
:100900008A95E1F78E010F5F1F4F7E0181E1E80EAE
:10091000F11C70E060E0F80181909190A190B1909D
:100920008F01072E000C880B990BB5D0A5019401FF
:10093000C6D191D2E016F10671F7072E000C880B94
:10094000990BA9D020E030E040E85EE303D14B01F1
:100950005C017C016B01AC019B01B2D2882359F090
:100960008FE792E021DD8DE592E01EDDEDDCFECF2C
:1009700080E692E0BACF24013501E89477F82FEFB2
:100980003FEF4FE75FE7C301B2019AD281110CC07C
:100990002FEF3FEF4FE75FE7C301B20176D01816A4
:1009A0001CF483E892E0DECF2FEF3FEF4FE75FE4E8
:1009B000C501B40181D218161CF487E892E0D2CFA9
:1009C0002FEF3FEF4FE75FECC501B4015ED087FD2D
:1009D000F4CF20E030E0A901C501B40156D087FF73
:1009E0000AC06DE285E992E044DC75016401F7FA22
:1009F000F094F7F8F0942AE037ED43EA5BE3C7019F
:100A0000B6015DD14B015C012BD26B017C0141D061
:100A10009B01AC01C501B40151D14B015C014AE01D
:100A2000C701B601CDDC6EE285E992E022DC20E070
:100A300030E040E251E4C501B4018CD06B017C018F
:100A40000FD24B01B12CA12C4AE0C501B401B8DC96
:100A5000C501B4011ED09B01AC01C701B6012ED166
:100A600020E030E040E251E475D0FAD190E080E03F
:100A70004AE0A6DC78CF8091360390913703EAD222
:100A80008091560390915703E5C240D008F481E06D
:100A90000895E89409C097FB3EF490958095709571
:100AA00061957F4F8F4F9F4F9923A9F0F92F96E9BA
:100AB000BB279395F695879577956795B795F1112F
:100AC000F8CFFAF4BB0F11F460FF1BC06F5F7F4FCC
:100AD0008F4F9F4F16C0882311F096E911C07723DE
:100AE00021F09EE8872F762F05C0662371F096E8E7
:100AF000862F70E060E02AF09A95660F771F881FB6
:100B0000DAF7880F9695879597F90895990F000859
:100B1000550FAA0BE0E8FEEF16161706E807F907CF
:100B2000C0F012161306E407F50798F0621B730B6A
:100B3000840B950B39F40A2661F0232B242B252BEB
:100B400021F408950A2609F4A140A6958FEF811D8E
:100B5000811D08950BD078C069D028F06ED018F0B0
:100B6000952309F05AC05FC01124A2C07ED0A0F323
:100B7000959FD1F3950F50E0551F629FF001729F32
:100B8000BB27F00DB11D639FAA27F00DB11DAA1F51
:100B9000649F6627B00DA11D661F829F2227B00D9E
:100BA000A11D621F739FB00DA11D621F839FA00D29
:100BB000611D221F749F3327A00D611D231F849F79
:100BC000600D211D822F762F6A2F11249F575040D0
:100BD0008AF0E1F088234AF0EE0FFF1FBB1F661F6B
:100BE000771F881F91505040A9F79E3F510570F024
:100BF00014C05EC05F3FECF3983EDCF386957795BA
:100C00006795B795F795E7959F5FC1F7FE2B880F1E
:100C1000911D9695879597F9089597F99F6780E8B4
:100C200070E060E008959FEF80EC089500240A943E
:100C30001616170618060906089500240A941216B7
:100C40001306140605060895092E0394000C11F4EA
:100C5000882352F0BB0F40F4BF2B11F460FF04C097
:100C60006F5F7F4F8F4F9F4F089557FD9058440FF0
:100C7000551F59F05F3F71F04795880F97FB991FFB
:100C800061F09F3F79F087950895121613061406B8
:100C9000551FF2CF4695F1DF08C016161706180645
:100CA000991FF1CF86957105610508940895E89420
:100CB000BB2766277727CB0197F908955058BB27A4
:100CC000AA270ED0C1CFB2DF30F0B7DF20F031F469
:100CD0009F3F11F41EF4A7CF0EF4E095E7FB9DCFE4
:100CE000E92FC3DF80F3BA176207730784079507FC
:100CF00018F071F49EF5DBCF0EF4E0950B2EBA2FB1
:100D0000A02D0B01B90190010C01CA01A001112411
:100D1000FF27591B99F0593F50F4503E68F11A16BD
:100D2000F040A22F232F342F4427585FF3CF46954E
:100D300037952795A795F0405395C9F77EF41F1670
:100D4000BA0B620B730B840BBAF09150A1F0FF0F3A
:100D5000BB1F661F771F881FC2F70EC0BA0F621F26
:100D6000731F841F48F4879577956795B795F79516
:100D70009E3F08F0B3CF9395880F08F09927EE0FA8
:100D80009795879508950CD05FCF57DF40F04EDFE1
:100D900030F021F45F3F19F040CF511189CF43CF9C
:100DA00064DF98F39923C9F35523B1F3951B550BD1
:100DB000BB27AA2762177307840738F09F5F5F4F2E
:100DC000220F331F441FAA1FA9F333D00E2E3AF06F
:100DD000E0E830D091505040E695001CCAF729D089
:100DE000FE2F27D0660F771F881FBB1F26173707D8
:100DF0004807AB07B0E809F0BB0B802DBF01FF2708
:100E000093585F4F2AF09E3F510568F006CF50CFB0
:100E10005F3FECF3983EDCF3869577956795B79541
:100E2000F7959F5FC9F7880F911D9695879597F95C
:100E30000895E1E0660F771F881FBB1F62177307D5
:100E40008407BA0720F0621B730B840BBA0BEE1FEA
:100E500088F7E095089504D06894B11129CF0895DA
:100E60000CDF88F09F5790F0B92F9927B751A0F069
:100E7000D1F0660F771F881F991F1AF0BA95C9F72E
:100E800012C0B13081F013DFB1E0089510CF672FA9
:100E9000782F8827B85F39F0B93FCCF386957795DE
:100EA0006795B395D9F73EF49095809570956195C7
:100EB0007F4F8F4F9F4F089529DE08F48FEF0895DD
:100EC00025DE880B990B0895A1E21A2EAA1BBB1BE5
:100ED000FD010DC0AA1FBB1FEE1FFF1FA217B30706
:100EE000E407F50720F0A21BB30BE40BF50B661F1C
:100EF000771F881F991F1A9469F7609570958095E0
:100F000090959B01AC01BD01CF010895EE0FFF1F2D
:100F1000881F8BBF0790F691E02D19940F931F93B4
:100F2000CF93DF938230910510F482E090E0E0915E
:100F30005E03F0915F0330E020E0B0E0A0E0309786
:100F400099F42115310509F44AC0281B390B2430C6
:100F50003105D8F58A819B816115710589F1FB0105
:100F600093838283FE0111C04081518102811381EC
:100F700048175907E0F04817590799F4109761F09E
:100F800012960C93129713961C933296CF01DF9111
:100F9000CF911F910F91089500935E0310935F030B
:100FA000F4CF2115310551F04217530738F0A9014C
:100FB000DB019A01BD01DF01F801C1CFEF01F9CFDB
:100FC00090935F0380935E03CDCFFE01E20FF31F8A
:100FD000819391932250310939832883D7CF20916F
:100FE0005C0330915D03232B41F420910202309188
:100FF000030230935D0320935C0320910002309143
:1010000001022115310541F42DB73EB7409104028C
:1010100050910502241B350BE0915C03F0915D03B8
:10102000E217F307A0F42E1B3F0B2817390778F0BF
:10103000AC014E5F5F4F2417350748F04E0F5F1F1E
:1010400050935D0340935C03819391939FCFF0E0B5
:10105000E0E09CCFCF93DF930097E9F0FC0132975B
:1010600013821282A0915E03B0915F03ED0130E024
:1010700020E01097A1F420813181820F931F2091ED
:101080005C0330915D032817390709F061C0F093C4
:101090005D03E0935C03DF91CF910895EA01CE17E1
:1010A000DF07E8F54A815B819E0141155105B1F7E3
:1010B000E901FB83EA8349915991C40FD51FEC17CD
:1010C000FD0761F4808191810296840F951FE901EB
:1010D00099838883828193819B838A83F0E0E0E017
:1010E00012968D919C9113970097B9F52D913C9193
:1010F0001197CD010296820F931F20915C033091CE
:101100005D032817390739F6309751F510925F03C0
:1011100010925E03B0935D03A0935C03BCCFD383B6
:10112000C28340815181840F951FC817D90761F48C
:101130004E5F5F4F88819981480F591F51834083CB
:101140008A819B81938382832115310509F0B0CF79
:10115000F0935F03E0935E039ECFFD01DC01C0CFFF
:1011600013821282D7CF4F925F926F927F928F92AB
:101170009F92AF92BF92CF92DF92EF92FF920F9326
:101180001F93CF93DF938C01009791F4CB01DF91F4
:10119000CF911F910F91FF90EF90DF90CF90BF9074
:1011A000AF909F908F907F906F905F904F90B6CE52
:1011B000FC01E60FF71F9C0122503109E217F307EB
:1011C00008F4AAC0D901CD91DC911197C617D707B1
:1011D00018F1C530D10570F0CE0104978617970736
:1011E00048F0C61BD70B2297C193D1936D937C9384
:1011F000CF0130DFC801DF91CF911F910F91FF9098
:10120000EF90DF90CF90BF90AF909F908F907F90A6
:101210006F905F904F9008955B01AC1ABD0A4C012E
:101220008C0E9D1EA0915E03B0915F03512C412C4A
:10123000F12CE12C109731F580915C0390915D03C6
:101240008815990509F05CC04616570608F058C085
:101250008091000290910102009741F48DB79EB7F2
:101260004091040250910502841B950BE817F90781
:1012700008F052C0F0935D03E0935C03F9017183C1
:101280006083B8CF8D919C91119712966C901297B4
:1012900013967C901397A815B90559F56C0142E097
:1012A000C40ED11CCA14DB0420F1AC014A195B093D
:1012B000DA011296159780F062827382518340831F
:1012C000D9016D937C93E114F10471F0D701139669
:1012D000FC93EE9312978ECF22968C0F9D1FF901EF
:1012E00091838083F301EFCFF0935F03E0935E037C
:1012F00081CF4816590608F42C017D01D3019ACFFD
:10130000CB010CDE7C01009739F0AE01B80107D0AB
:10131000C801A0DE87016ECF10E000E06BCFFB01BB
:10132000DC0102C001900D9241505040D8F7089561
:10133000FB01DC0101900D920020E1F7089510E01F
:10134000C3E7D0E000E005C0802FFE01DFDD21967D
:10135000011DC437D10780E00807B1F7F894FFCF2B
:1013600000006003800000007A440000FA4400009E
:101370007A440000FA44000000003901A400D100C2
:1013800085010201E000F40053757370656E7369A6
:1013900020746964616B2064616C616D206B6561B0
:1013A0006461616E206E6F726D616C2C207065726D
:1013B000696B7361206B656D62616C69000D0A0079
:1013C00053757370656E73692064616C616D202064
:1013D0006B65616461616E206E6F726D616C006E31
:0C13E000616E00696E66006F76660000AA
:00000001FF
